HEXTRATO DE CONTA CORRENTE DE LOCAÇÃO    TIAGO BECK KIDRICKI                                         01/04/2012 a 30/04/2012                                                                             30/04/2012
L09/04/2012 03/2012DEPOSITO C/C BANCO DO BRASIL S/A Conta 8599-5                                   000000000806100000000000000000000000000000C
I00005534R CORONEL FONSECA,936 - 201                       
L06/04/2012 03/2012ALUGUEL                                                                         000000000000000000000004974900000000000000C
L06/04/2012 03/2012TAXA DE ADMINISTRACAO.                                                          000000000049750000000000000000000000000000C
L06/04/2012 03/2012SEGURO FOGO                                                                     000000000000000000000000177000000000000000C
L06/04/2012 03/2012IPTU-REPASSE                                                                    000000000000000000000000218100000000000000C
I00005536R JOSE COSTA DE MEDEIROS,1852 - 301               
L06/04/2012 03/2012ALUGUEL                                                                         000000000000000000000003710000000000000000C
L06/04/2012 03/2012TAXA DE ADMINISTRACAO.                                                          000000000037100000000000000000000000000000C
L06/04/2012 03/2012MATERIAL LIMPEZA                                                                000000000000000000000000005300000000000000C
L06/04/2012 03/2012MATERIAL LIMPEZA                                                                000000000000530000000000000000000000000000C
L06/04/2012 03/2012LUZ                                                                             000000000000000000000000165300000000000000C
L06/04/2012 03/2012LUZ                                                                             000000000016530000000000000000000000000000C
L06/04/2012 03/2012TAXA DE ADMINISTRAÇAO                                                           000000000011670000000000000000000000000000C
L06/04/2012 03/2012TAXA DE ADMINISTRAÇAO                                                           000000000000000000000000116700000000000000C
L06/04/2012 03/2012SEGURO FOGO                                                                     000000000000000000000000239900000000000000C
L06/04/2012 03/2012MANUT DIVERSAS MATERIAL ELETRICO                                                000000000004480000000000000000000000000000C
L06/04/2012 03/2012MANUT DIVERSAS MATERIAL ELETRICO                                                000000000000000000000000044800000000000000C
L06/04/2012 03/2012CORREIO                                                                         000000000000000000000000001300000000000000C
L06/04/2012 03/2012CORREIO                                                                         000000000000130000000000000000000000000000C
L06/04/2012 03/2012AGUA                                                                            000000000008930000000000000000000000000000C
L06/04/2012 03/2012AGUA PARCELAMENTO                                                               000000000000000000000000089300000000000000C
L06/04/2012 03/2012ELEVADOR MANUTENÇAO                                                             000000000000000000000000066300000000000000C
L06/04/2012 03/2012ELEVADOR MANUTENÇAO                                                             000000000006630000000000000000000000000000C
L06/04/2012 03/2012SALARIO                                                                         000000000000000000000000218300000000000000C
L06/04/2012 03/2012SALARIO                                                                         000000000021830000000000000000000000000000C
L06/04/2012 03/2012TAXA CONDOMINIO RAIS NEGATIVA- INSS                                             000000000001170000000000000000000000000000C
L06/04/2012 03/2012TAXA CONDOMINIO RAIS NEGATIVA- INSS                                             000000000000000000000000011700000000000000C
L06/04/2012 03/2012VALE TRANSPORTE                                                                 000000000003330000000000000000000000000000C
L06/04/2012 03/2012VALE TRANSPORTE                                                                 000000000000000000000000033300000000000000C
L06/04/2012 03/2012IPTU-REPASSE                                                                    000000000000000000000000114500000000000000C
L06/04/2012 03/2012TELEFONE                                                                        000000000000000000000000023500000000000000C
L06/04/2012 03/2012TELEFONE                                                                        000000000002350000000000000000000000000000C
L06/04/2012 03/2012LIMPEZA                                                                         000000000000000000000000045000000000000000C
L06/04/2012 03/2012LIMPEZA                                                                         000000000004500000000000000000000000000000C
L06/04/2012 03/2012FUNDO RESERVA RESERVA                                                           000000000008800000000000000000000000000000C
L06/04/2012 03/2012SERVICO PRESTADO ALERTA ALARMES                                                 000000000005670000000000000000000000000000C
L06/04/2012 03/2012SERVICO PRESTADO ALERTA ALARMES                                                 000000000000000000000000056700000000000000C
L                  TOTAL                                                                           000000000989500000000010311900000000004169C
R                  ALUGUEL                                                                         000000000000000000000008684900000000000000C
R                  TAXA DE ADMINISTRACAO.                                                          000000000086850000000000000000000000000000C
R                  MATERIAL LIMPEZA                                                                000000000000530000000000005300000000000000C
R                  LUZ                                                                             000000000016530000000000165300000000000000C
R                  TAXA DE ADMINISTRAÇAO                                                           000000000011670000000000116700000000000000C
R                  SEGURO FOGO                                                                     000000000000000000000000416900000000000000C
R                  MANUT DIVERSAS                                                                  000000000004480000000000044800000000000000C
R                  CORREIO                                                                         000000000000130000000000001300000000000000C
R                  AGUA                                                                            000000000008930000000000000000000000000000C
R                  AGUA PARCELAMENTO                                                               000000000000000000000000089300000000000000C
R                  ELEVADOR MANUTENÇAO                                                             000000000006630000000000066300000000000000C
R                  SALARIO                                                                         000000000021830000000000218300000000000000C
R                  TAXA CONDOMINIO                                                                 000000000001170000000000011700000000000000C
R                  VALE                                                                            000000000003330000000000033300000000000000C
R                  IPTU-REPASSE                                                                    000000000000000000000000332600000000000000C
R                  TELEFONE                                                                        000000000002350000000000023500000000000000C
R                  LIMPEZA                                                                         000000000004500000000000045000000000000000C
R                  FUNDO RESERVA                                                                   000000000008800000000000000000000000000000C
R                  DEPOSITO C/C                                                                    000000000806100000000000000000000000000000C
R                  SERVICO PRESTADO                                                                000000000005670000000000056700000000000000C
R                  TOTAL                                                                           000000000989500000000010311900000000004169C
S000000000000000000000000000000000000000000C
S000000000989500000000010311900000000004169C
CValor para cálculo de carnê Leão                  00000000086849-000000000868500000000078164
